{
  "contractName": "Bank",
  "abi": [
    {
      "inputs": [],
      "name": "name",
      "outputs": [
        {
          "internalType": "string",
          "name": "",
          "type": "string"
        }
      ],
      "stateMutability": "view",
      "type": "function"
    },
    {
      "inputs": [],
      "name": "owner",
      "outputs": [
        {
          "internalType": "address payable",
          "name": "",
          "type": "address"
        }
      ],
      "stateMutability": "view",
      "type": "function"
    }
  ],
  "bytecode": "0x60c0604052600460808190526342616e6b60e01b60a09081526100259160009190610038565b5034801561003257600080fd5b5061010c565b828054610044906100d1565b90600052602060002090601f01602090048101928261006657600085556100ac565b82601f1061007f57805160ff19168380011785556100ac565b828001600101855582156100ac579182015b828111156100ac578251825591602001919060010190610091565b506100b89291506100bc565b5090565b5b808211156100b857600081556001016100bd565b6002810460018216806100e557607f821691505b6020821081141561010657634e487b7160e01b600052602260045260246000fd5b50919050565b6101e38061011b6000396000f3fe608060405234801561001057600080fd5b50600436106100365760003560e01c806306fdde031461003b5780638da5cb5b14610059575b600080fd5b61004361006e565b604051610050919061011f565b60405180910390f35b6100616100fc565b604051610050919061010b565b6000805461007b90610172565b80601f01602080910402602001604051908101604052809291908181526020018280546100a790610172565b80156100f45780601f106100c9576101008083540402835291602001916100f4565b820191906000526020600020905b8154815290600101906020018083116100d757829003601f168201915b505050505081565b6001546001600160a01b031681565b6001600160a01b0391909116815260200190565b6000602080835283518082850152825b8181101561014b5785810183015185820160400152820161012f565b8181111561015c5783604083870101525b50601f01601f1916929092016040019392505050565b60028104600182168061018657607f821691505b602082108114156101a757634e487b7160e01b600052602260045260246000fd5b5091905056fea2646970667358221220fdc1c3835c46f1d50638787d5adb4fe1dfeab5a1e2a983fa555dfbe25f9bc91c64736f6c63430008000033",
  "immutableReferences": {},
  "source": "// SPDX-License-Identifier: GPL-3.0\n\npragma solidity >=0.5.0 <0.9.0;\n\ncontract Bank {\n    string public name = 'Bank';\n    address payable public owner;\n}",
  "sourcePath": "/home/cores1369/web3_practice/contracts/DecentralBank.sol",
  "compiler": {
    "name": "solc",
    "version": "0.8.0+commit.c7dfd78e.Emscripten.clang"
  },
  "schemaVersion": "3.4.3",
  "updatedAt": "2021-10-13T08:56:16.276Z",
  "devdoc": {
    "kind": "dev",
    "methods": {},
    "version": 1
  },
  "userdoc": {
    "kind": "user",
    "methods": {},
    "version": 1
  }
}