{
  "contractName": "DecentralBank",
  "abi": [
    {
      "inputs": [
        {
          "internalType": "contract RewardToken",
          "name": "_reward",
          "type": "address"
        },
        {
          "internalType": "contract Tether",
          "name": "_tether",
          "type": "address"
        }
      ],
      "stateMutability": "nonpayable",
      "type": "constructor"
    },
    {
      "inputs": [],
      "name": "name",
      "outputs": [
        {
          "internalType": "string",
          "name": "",
          "type": "string"
        }
      ],
      "stateMutability": "view",
      "type": "function",
      "constant": true
    },
    {
      "inputs": [],
      "name": "owner",
      "outputs": [
        {
          "internalType": "address payable",
          "name": "",
          "type": "address"
        }
      ],
      "stateMutability": "view",
      "type": "function",
      "constant": true
    },
    {
      "inputs": [],
      "name": "reward",
      "outputs": [
        {
          "internalType": "contract RewardToken",
          "name": "",
          "type": "address"
        }
      ],
      "stateMutability": "view",
      "type": "function",
      "constant": true
    },
    {
      "inputs": [],
      "name": "tether",
      "outputs": [
        {
          "internalType": "contract Tether",
          "name": "",
          "type": "address"
        }
      ],
      "stateMutability": "view",
      "type": "function",
      "constant": true
    }
  ],
  "bytecode": "0x60c0604052600460808190526342616e6b60e01b60a09081526100259160009190610082565b5034801561003257600080fd5b506040516103dd3803806103dd8339810160408190526100519161011b565b600380546001600160a01b039384166001600160a01b031991821617909155600280549290931691161790556101a7565b82805461008e90610154565b90600052602060002090601f0160209004810192826100b057600085556100f6565b82601f106100c957805160ff19168380011785556100f6565b828001600101855582156100f6579182015b828111156100f65782518255916020019190600101906100db565b50610102929150610106565b5090565b5b808211156101025760008155600101610107565b6000806040838503121561012d578182fd5b82516101388161018f565b60208401519092506101498161018f565b809150509250929050565b60028104600182168061016857607f821691505b6020821081141561018957634e487b7160e01b600052602260045260246000fd5b50919050565b6001600160a01b03811681146101a457600080fd5b50565b610227806101b66000396000f3fe608060405234801561001057600080fd5b506004361061004c5760003560e01c806306fdde0314610051578063228cb7331461006f5780635efc071a146100845780638da5cb5b1461008c575b600080fd5b610059610094565b6040516100669190610163565b60405180910390f35b610077610122565b604051610066919061014f565b610077610131565b610077610140565b600080546100a1906101b6565b80601f01602080910402602001604051908101604052809291908181526020018280546100cd906101b6565b801561011a5780601f106100ef5761010080835404028352916020019161011a565b820191906000526020600020905b8154815290600101906020018083116100fd57829003601f168201915b505050505081565b6003546001600160a01b031681565b6002546001600160a01b031681565b6001546001600160a01b031681565b6001600160a01b0391909116815260200190565b6000602080835283518082850152825b8181101561018f57858101830151858201604001528201610173565b818111156101a05783604083870101525b50601f01601f1916929092016040019392505050565b6002810460018216806101ca57607f821691505b602082108114156101eb57634e487b7160e01b600052602260045260246000fd5b5091905056fea2646970667358221220c4ced56456ed062dca4bd34a51086645866dda9d6c9d1850dced13976c18db5064736f6c63430008000033",
  "immutableReferences": {},
  "source": "// SPDX-License-Identifier: GPL-3.0\n\npragma solidity >=0.5.0 <0.9.0;\n\nimport './RewardToken.sol';\nimport './Tether.sol';\n\ncontract DecentralBank {\n    string public name = 'Bank';\n    address payable public owner;\n\n    Tether public tether;\n    RewardToken public reward;\n\n    constructor(RewardToken _reward, Tether _tether) {\n        reward = _reward;\n        tether = _tether;\n    }\n}",
  "sourcePath": "/home/cores1369/web3_practice/contracts/DecentralBank.sol",
  "compiler": {
    "name": "solc",
    "version": "0.8.0+commit.c7dfd78e.Emscripten.clang"
  },
  "schemaVersion": "3.4.3",
  "updatedAt": "2021-10-13T10:48:29.158Z",
  "networkType": "ethereum",
  "devdoc": {
    "kind": "dev",
    "methods": {},
    "version": 1
  },
  "userdoc": {
    "kind": "user",
    "methods": {},
    "version": 1
  }
}