{
  "contractName": "Tether",
  "abi": [
    {
      "inputs": [],
      "name": "decimals",
      "outputs": [
        {
          "internalType": "uint256",
          "name": "",
          "type": "uint256"
        }
      ],
      "stateMutability": "view",
      "type": "function",
      "constant": true
    },
    {
      "inputs": [],
      "name": "name",
      "outputs": [
        {
          "internalType": "string",
          "name": "",
          "type": "string"
        }
      ],
      "stateMutability": "view",
      "type": "function",
      "constant": true
    },
    {
      "inputs": [],
      "name": "symbol",
      "outputs": [
        {
          "internalType": "string",
          "name": "",
          "type": "string"
        }
      ],
      "stateMutability": "view",
      "type": "function",
      "constant": true
    },
    {
      "inputs": [],
      "name": "totalSupply",
      "outputs": [
        {
          "internalType": "uint256",
          "name": "",
          "type": "uint256"
        }
      ],
      "stateMutability": "view",
      "type": "function",
      "constant": true
    }
  ],
  "bytecode": "0x60c060405260066080819052652a32ba3432b960d11b60a0908152610027916000919061007b565b50604080518082019091526004808252631554d11560e21b60209092019182526100539160019161007b565b506b033b2e3c9fd0803ce8000000600255601260035534801561007557600080fd5b5061014f565b82805461008790610114565b90600052602060002090601f0160209004810192826100a957600085556100ef565b82601f106100c257805160ff19168380011785556100ef565b828001600101855582156100ef579182015b828111156100ef5782518255916020019190600101906100d4565b506100fb9291506100ff565b5090565b5b808211156100fb5760008155600101610100565b60028104600182168061012857607f821691505b6020821081141561014957634e487b7160e01b600052602260045260246000fd5b50919050565b6102088061015e6000396000f3fe608060405234801561001057600080fd5b506004361061004c5760003560e01c806306fdde031461005157806318160ddd1461006f578063313ce5671461008457806395d89b411461008c575b600080fd5b610059610094565b604051610066919061013b565b60405180910390f35b610077610122565b604051610066919061018e565b610077610128565b61005961012e565b600080546100a190610197565b80601f01602080910402602001604051908101604052809291908181526020018280546100cd90610197565b801561011a5780601f106100ef5761010080835404028352916020019161011a565b820191906000526020600020905b8154815290600101906020018083116100fd57829003601f168201915b505050505081565b60025481565b60035481565b600180546100a190610197565b6000602080835283518082850152825b818110156101675785810183015185820160400152820161014b565b818111156101785783604083870101525b50601f01601f1916929092016040019392505050565b90815260200190565b6002810460018216806101ab57607f821691505b602082108114156101cc57634e487b7160e01b600052602260045260246000fd5b5091905056fea26469706673582212202ed6a20ef1c74944bf996a8b0bc2f4a478a0fae8ea43fec97a4e9d04e023599764736f6c63430008000033",
  "immutableReferences": {},
  "source": "// SPDX-License-Identifier: GPL-3.0\n\npragma solidity <0.9.0;\n\ncontract Tether {\n    string public name = 'Tether';\n    string public symbol = 'USDT';\n    uint public totalSupply = 1000000000000000000000000000;\n    uint public decimals = 18;\n}",
  "sourcePath": "/home/cores1369/web3_practice/contracts/Tether.sol",
  "compiler": {
    "name": "solc",
    "version": "0.8.0+commit.c7dfd78e.Emscripten.clang"
  },
  "schemaVersion": "3.4.3",
  "updatedAt": "2021-10-12T12:14:25.911Z",
  "networkType": "ethereum",
  "devdoc": {
    "kind": "dev",
    "methods": {},
    "version": 1
  },
  "userdoc": {
    "kind": "user",
    "methods": {},
    "version": 1
  }
}